:100000000C9462000C948A000C948A000C948A0070
:100010000C948A000C948A000C948A000C948A0038
:100020000C948A000C948A000C948A000C948A0028
:100030000C948A000C948A000C948A000C948A0018
:100040000C949E010C948A000C940E020C94E8010E
:100050000C948A000C948A000C948A000C948A00F8
:100060000C948A000C948A000000000025002800EF
:100070002B0000000000240027002A0000000000E0
:1000800023002600290004040404040404040202DA
:100090000202020203030303030301020408102007
:1000A0004080010204081020010204081020000012
:1000B0000008000201000003040700000000000027
:1000C0000000600411241FBECFEFD8E0DEBFCDBF1B
:1000D00011E0A0E0B1E0E6ECFBE002C005900D927B
:1000E000A833B107D9F721E0A8E3B1E001C01D9220
:1000F000AE3FB207E1F710E0C2E6D0E004C02197BE
:10010000FE010E94B504C136D107C9F70E94400222
:100110000C94E1050C940000CF92DF92EF92FF92D5
:100120000F931F93CF93DF936C017A018B01C0E093
:10013000D0E0CE15DF0581F0D8016D918D01D6019B
:10014000ED91FC910190F081E02DC6010995892B7C
:1001500011F02196EECF7E01C701DF91CF911F9163
:100160000F91FF90EF90DF90CF900895089580E079
:1001700090E00895FC01538D448D252F30E0842FAD
:1001800090E0821B930B541710F0CF9608950197BF
:100190000895FC01918D828D981761F0828DDF01A9
:1001A000A80FB11D5D968C91928D9F5F9F73928F6A
:1001B00090E008958FEF9FEF0895FC01918D828D5F
:1001C000981731F0828DE80FF11D858D90E008952C
:1001D0008FEF9FEF0895FC01918D228D892F90E084
:1001E000805C9F4F821B91098F739927089588E344
:1001F00091E00E94EB0021E0892B09F420E0822F9E
:100200000895FC01848DDF01A80FB11DA35ABF4FD3
:100210002C91848D90E001968F739927848FA68905
:10022000B7892C93A089B1898C91837080648C9359
:10023000938D848D981306C00288F389E02D808108
:100240008F7D80830895EF92FF920F931F93CF933A
:10025000DF93EC0181E0888F9B8D8C8D981305C016
:10026000E889F989808185FD26C0F62E0B8D10E086
:100270000F5F1F4F0F731127E02E8C8DE8120CC0FB
:100280000FB607FCFACFE889F989808185FFF5CFA1
:10029000CE010E940101F1CF8B8DFE01E80FF11D0F
:1002A000E35AFF4FF0829FB7F8940B8FEA89FB89DE
:1002B000808180620AC09FB7F894EE89FF896083CD
:1002C000E889F98980818370806480839FBF81E0A1
:1002D00090E0DF91CF911F910F91FF90EF900895E3
:1002E000CF93DF93EC01888D8823C9F0EA89FB89DD
:1002F000808185FD05C0A889B9898C9186FD0FC0D4
:100300000FB607FCF5CF808185FFF2CFA889B989A8
:100310008C9185FFEDCFCE010E940101E7CFDF91E7
:10032000CF91089580E090E0892B29F00E94F7009A
:1003300081110C94000008950E94DC051F920F9219
:100340000FB60F9211242F933F938F939F93AF93E8
:10035000BF938091F6019091F701A091F801B091BF
:10036000F9013091F50123E0230F2D3720F4019698
:10037000A11DB11D05C026E8230F0296A11DB11DC8
:100380002093F5018093F6019093F701A093F80173
:10039000B093F9018091F1019091F201A091F301E4
:1003A000B091F4010196A11DB11D8093F1019093CC
:1003B000F201A093F301B093F401BF91AF919F912B
:1003C0008F913F912F910F900FBE0F901F90189516
:1003D0001F920F920FB60F9211242F933F934F93BA
:1003E0005F936F937F938F939F93AF93BF93EF939D
:1003F000FF9388E391E00E940101FF91EF91BF918B
:10040000AF919F918F917F916F915F914F913F91AC
:100410002F910F900FBE0F901F9018951F920F9263
:100420000FB60F9211242F938F939F93EF93FF9307
:10043000E0914801F09149018081E0914E01F091F5
:100440004F0182FD12C09081809151018F5F8F73A7
:1004500020915201821751F0E0915101F0E0E85CE7
:10046000FE4F958F8093510101C08081FF91EF91E4
:100470009F918F912F910F900FBE0F901F90189505
:10048000789484B5826084BD84B5816084BD85B56F
:10049000826085BD85B5816085BD80916E0081607B
:1004A00080936E0010928100809181008260809321
:1004B0008100809181008160809381008091800023
:1004C0008160809380008091B10084608093B1004E
:1004D0008091B00081608093B00080917A00846048
:1004E00080937A0080917A00826080937A00809174
:1004F0007A00816080937A0080917A00806880938E
:100500007A001092C100E0914801F091490182E027
:100510008083E0914401F09145011082E091460111
:10052000F0914701108210925001E0914C01F0913E
:100530004D0186E08083E0914A01F0914B0180817A
:1005400080618083E0914A01F0914B018081886055
:100550008083E0914A01F0914B0180818068808323
:10056000E0914A01F0914B0180818F7D808383EE81
:1005700091E09093D8018093D7018EE08093D901C8
:1005800088E391E09093D6018093D5018FE090E0CD
:100590000E94BB049093DB018093DA0128E331E0F1
:1005A000A8E1B1E08D919D919927FC01E656FF4F9E
:1005B0004491FC01EA57FF4F84918823C9F090E0F1
:1005C000880F991FFC01EE58FF4FC591D491FC0193
:1005D000E859FF4F659174919FB7F8948881542F23
:1005E000509585238883EB01E8814E2B48839FBF7C
:1005F0002A173B07B9F6ECEAF0E02491E8E9F0E0CD
:1006000084918823C1F090E0880F991FFC01EE5877
:10061000FF4FC591D491FC01E859FF4FA591B491CA
:100620009FB7F8948881E22FE0958E2388838C9180
:10063000E823EC939FBFC12CD12C7601C39414E422
:10064000CDECD0E0A8E1B1E0812C912C540120E068
:1006500030E08D919D919927FC01E255FF4F449127
:10066000FC01E656FF4F6491FC01EA57FF4FE4910D
:10067000EE23A9F1442339F1433091F038F44130AD
:10068000A9F0423001F584B58F7D12C0473091F05A
:100690004830A1F04430B9F4809180008F7D03C0D0
:1006A000809180008F77809380000DC084B58F7714
:1006B00084BD09C08091B0008F7703C08091B000E5
:1006C0008F7D8093B000F0E0EE0FFF1FE458FF4FE6
:1006D00045915491FA018081682309F0CBC0B7019C
:1006E000A601022E04C0440F551F661F771F0A94EF
:1006F000D2F7842A952AA62AB72A2F5F3F4F2031A6
:10070000310509F0A6CF10937C0080917A008064B7
:1007100080937A0080917A0086FDFCCF80917800EA
:100720002091790090E0922BBE010E948D0480E11F
:1007300090E09C01205131092617370709F0ADC020
:1007400026013701082E04C0440C551C661C771C7A
:100750000A94D2F784289528A628B72801968531CF
:10076000910539F78092ED019092EE01A092EF0190
:10077000B092F0012FB7F8948091F6019091F701B3
:10078000A091F801B091F9012FBF4091DF01509184
:10079000E0016091E1017091E201841B950BA60BD1
:1007A000B70B0B97A105B10508F461C09090D90172
:1007B0008091D5019091D601DC01ED91FC910190E1
:1007C000F081E02D66E009958091D5019091D601E8
:1007D000DC01ED91FC910190F081E02D65E8099537
:1007E0008091D5019091D601DC01ED91FC910190B1
:1007F000F081E02D6091D9010995A12CB12C2091B7
:10080000D90130E08091D5019091D601A216B306AE
:100810009CF4E091D701F091D801EA0DFB1D6081B5
:100820009626DC01ED91FC910190F081E02D099577
:10083000BFEFAB1ABB0AE3CFDC01ED91FC91019055
:10084000F081E02D692D09952FB7F8948091F6017C
:100850009091F701A091F801B091F9012FBF809319
:10086000DF019093E001A093E101B093E2010E94C7
:100870009201E8CEB701A601022E04C0440F551F15
:10088000661F771F0A94D2F7409550956095709532
:1008900084229522A622B72230CF26013701082EC6
:1008A00004C0440C551C661C771C0A94D2F7409473
:1008B00050946094709484209520A620B7204ECF49
:1008C000E8E3F1E01382128288EE93E0A0E0B0E06A
:1008D00084839583A683B7838AE091E091838083A4
:1008E00085EC90E09587848784EC90E097878687F5
:1008F00080EC90E0918B808B81EC90E0938B828BED
:1009000082EC90E0958B848B86EC90E0978B868BC5
:10091000118E128E138E148E089597FB072E16F4E7
:10092000009407D077FD09D00E94A10407FC05D0F0
:100930003EF4909581959F4F0895709561957F4FF6
:100940000895AA1BBB1B51E107C0AA1FBB1FA61716
:10095000B70710F0A61BB70B881F991F5A95A9F768
:1009600080959095BC01CD010895EE0FFF1F059075
:10097000F491E02D09940F931F93CF93DF9382306E
:10098000910510F482E090E0E091FC01F091FD010E
:1009900020E030E0A0E0B0E0309719F140815181D3
:1009A0000281138148175907C8F08417950769F425
:1009B000109731F012960C93129713961C9327C040
:1009C0000093FC011093FD0122C02115310519F09F
:1009D0004217530718F49A01BD01EF01DF01F80136
:1009E000DBCF21153105F9F0281B390B24303105F7
:1009F00080F48A819B816115710521F0FB0193834D
:100A0000828304C09093FD018093FC01FE01329625
:100A100044C0FE01E20FF31F8193919322503109EC
:100A2000398328833AC02091FA013091FB01232BAE
:100A300041F420910201309103013093FB01209396
:100A4000FA0120910001309101012115310541F495
:100A50002DB73EB74091040150910501241B350B81
:100A6000E091FA01F091FB01E217F307A0F42E1BCD
:100A70003F0B2817390778F0AC014E5F5F4F241702
:100A8000350748F04E0F5F1F5093FB014093FA016A
:100A90008193919302C0E0E0F0E0CF01DF91CF912C
:100AA0001F910F910895CF93DF93009709F481C0B0
:100AB000FC01329713821282A091FC01B091FD01DA
:100AC000109781F420813181820F931F2091FA01C8
:100AD0003091FB012817390751F5F093FB01E093A2
:100AE000FA0167C0ED0120E030E0CE17DF0740F4E7
:100AF0004A815B819E0141155105F1F0EA01F5CF74
:100B0000D383C28340815181840F951FC817D907B1
:100B100059F488819981840F951F0296918380836F
:100B20008A819B81938382832115310529F4F09377
:100B3000FD01E093FC013DC0E901FB83EA8349919B
:100B40005991C40FD51FEC17FD0761F48081918185
:100B5000840F951F0296E90199838883828193818E
:100B60009B838A83E0E0F0E012968D919C9113972D
:100B7000009719F0FD01DC01F7CF8D919C91119741
:100B80009D012E5F3F4F820F931F2091FA013091FC
:100B9000FB012817390769F4309729F41092FD01F9
:100BA0001092FC0102C013821282B093FB01A09349
:100BB000FA01DF91CF91089581E090E0F8940C94D0
:060BC000E105F894FFCFEF
:100BC6000000FE0120000000000023018C00BA0096
:100BD6007001EB00C900DD000200030004000500FF
:100BE60006000700080009000A000B000C000D00B3
:080BF6000E000F0010001100B9
:00000001FF
